:100000000C94BA000C94CF000C94CF000C94CF0049
:100010000C94CF000C94CF000C94CF000C94CF0024
:100020000C94CF000C94CF000C94CF000C94CF0014
:100030000C94CF000C94CF000C94CF000C94CF0004
:100040000C94CF000C94CF000C94CF000C94CF00F4
:100050000C94CF00DD00F6000F01280140014001A3
:100060004001400140014001400140014001400188
:100070004001400140014001400140014001400178
:100080004001400140014001400140014001400168
:1000900040014001DD00F6000F0128014D0166011D
:1000A0007F019801B001B001B001B001B001B00111
:1000B000B001B001B001B001B001B001B001B001B8
:1000C000B001B001B001B001B001B001B001B001A8
:1000D000B001B001B001B001B001B0014D01660145
:1000E0007F019801BC01BE01C001C201C301C3016F
:1000F000C301C301C301C301C301C301C301C301E0
:10010000C301C301C301C301C301C301C301C301CF
:10011000C301C301C301C301C301C301C301C301BF
:10012000C301C301BC01BE01C001C201CF01D101A5
:10013000D301D501D601D601D601D601D601D6010B
:10014000D601D601D601D601D601D601D601D601F7
:10015000D601D601D601D601D601D601D601D601E7
:10016000D601D601D601D601D601D601CF01D101E3
:10017000D301D50111241FBECFE5D8E0DEBFCDBF2E
:1001800010E0A0E6B0E0EAEFFAE002C005900D92C0
:10019000A438B107D9F70E9491020C947B050C9406
:1001A000000090E0FC01E154F109E432F10508F0AF
:1001B00067C0E65DFF4F0C947505413059F42AB3D2
:1001C00081E090E002C0880F991F6A95E2F7822BC8
:1001D0008ABB08952AB381E090E002C0880F991F7E
:1001E0006A95E2F7809582238ABB0895413059F4DD
:1001F00027B381E090E002C0880F991F6A95E2F76B
:10020000822B87BB089527B381E090E002C0880F5E
:10021000991F6A95E2F78095822387BB0895413044
:1002200059F424B381E090E002C0880F991F6A95C9
:10023000E2F7822B84BB089524B381E090E002C0F2
:10024000880F991F6A95E2F78095822384BB0895F1
:10025000413059F421B381E090E002C0880F991F2A
:100260006A95E2F7822B81BB089521B381E090E08B
:1002700002C0880F991F6A95E2F78095822381BB9F
:10028000089590E0FC01E154F109E432F10508F031
:1002900067C0E25BFF4F0C947505413059F42BB3F6
:1002A00081E090E002C0880F991F6A95E2F7822BE7
:1002B0008BBB08952BB381E090E002C0880F991F9B
:1002C0006A95E2F7809582238BBB0895413059F4FB
:1002D00028B381E090E002C0880F991F6A95E2F789
:1002E000822B88BB089528B381E090E002C0880F7C
:1002F000991F6A95E2F78095822388BB0895413063
:1003000059F425B381E090E002C0880F991F6A95E7
:10031000E2F7822B85BB089525B381E090E002C00F
:10032000880F991F6A95E2F78095822385BB08950F
:10033000413059F422B381E090E002C0880F991F48
:100340006A95E2F7822B82BB089522B381E090E0A8
:1003500002C0880F991F6A95E2F78095822382BBBD
:10036000089590E0FC01E154F109E432F10558F4FC
:10037000EE58FF4F0C9475056ABB089567BB08954E
:1003800064BB089561BB089590E0FC01E154F1095C
:10039000E432F10558F4EA56FF4F0C9475056BBB37
:1003A000089568BB089565BB089562BB089541E058
:1003B00062E082E40E9441018FE99FE00197F1F73A
:1003C00000C0000040E062E082E40E9441018FE949
:1003D0009FE00197F1F700C000000895CF93C82F68
:1003E00040E060E082E40E9441016C2F81E40E94C1
:1003F000C4010E94D7018FEC97E00197F1F700C08C
:100400000000CF9108952FEF81EE94E021508040BD
:100410009040E1F700C000006FEF81E40E94B1015D
:1004200041E062E082E40E94D10041E061E082E4C8
:100430000E94D10041E060E082E40E94D10040E0EF
:1004400061E082E40E94410188E30E94EE018FECAA
:1004500097E00197F1F700C0000081E00E94EE01F3
:100460008FE19EE40197F1F700C000008CE00E944C
:10047000EE018FEC97E00197F1F700C0000086E0F5
:100480000E94EE018FEC97E00197F1F700C00000A9
:100490000895CF93C82F41E060E082E40E944101BB
:1004A0006C2F81E40E94C4010E94D701CF9108956E
:1004B000CF93DF93EC0103C00E944902219688810B
:1004C0008111FACFDF91CF91089581E00E94EE0172
:1004D0008FE19EE40197F1F700C0000008959FEFBF
:1004E000980F923070F4613170F4662371F08130AE
:1004F00019F48FE7860F0CC0823049F48FEB860F1A
:1005000007C080E805C080E803C080E801C080E043
:100510000E94EE018FEC97E00197F1F700C0000018
:1005200008958F929F92AF92BF92CF92DF92EF92F7
:10053000FF920F931F93CF93DF930E9403020E94B9
:100540008C030E94AB038C010E94B803EC010E9453
:10055000AB031EBC0C171D0708F0C9C0C817D9078C
:1005600008F0C5C0BE01601B710BEC01C01BD10BB4
:1005700080E090E00E9466044B015C01BE0180E0D7
:1005800090E00E9466046B017C019B01AC01C501F7
:10059000B4010E94C50320E030E048EC52E40E9420
:1005A000F4040E943704B62E862F972F8C01A701E2
:1005B000960160E074E284EF9AE40E94C5030E9411
:1005C0003704F62EC62FD72F80E690E00E945802FF
:1005D0000A30110528F480E38B0D0E94490211C0F6
:1005E0000436110570F4C8016AE070E00E946105EC
:1005F000182F80E3860F0E94490280E3810F0E943A
:10060000490285E20E94490261E082E00E946F0295
:1006100086E690E00E945802CA30D10528F480E3B3
:100620008F0D0E9449025EC0C436D10578F4CE0118
:100630006AE070E00E946105C82F80E3860F0E9487
:10064000490280E38C0F0E9449024CC0C83E83E0FF
:10065000D807E0F4CE0164E670E00E9461057C01F9
:1006600080E3860F0E9449020AE010E0C701B8014A
:100670000E94610580E3860F0E944902CE01B80105
:100680000E946105805D0E9449022CC0C03187E252
:10069000D80740F5CE0168EE73E00E9461057C0149
:1006A00080E3860F0E94490204E610E0C701B8010A
:1006B0000E94610580E3860F0E944902CE01B801C5
:1006C0000E9461050AE010E0B8010E94610580E324
:1006D000860F0E944902CE01B8010E946105805D2B
:1006E0000E94490281E790E00E94580206C00E94E1
:1006F000650284E790E00E94580280E090E0DF917C
:10070000CF911F910F91FF90EF90DF90CF90BF900E
:10071000AF909F908F9008958FB58E7F8FBD8FB5CE
:100720008D7F8FBD8EB5877F8EBD8EB58F7E8EBD42
:100730008EB581608EBD8EB58D7F8EBD8EB58B7F63
:100740008EBD81B38F7B81BB8EB580688EBD88B72F
:10075000806288BF08958EB580648EBD08B605FEA0
:10076000FDCF26B537B598B7906298BFC9010895F7
:100770008EB58F7B8EBD08B605FEFDCF26B537B58D
:1007800098B7906298BFC90108950E94D9030C944C
:10079000BA040E94B30458F00E94AC0440F029F45B
:1007A0005F3F29F00C94A30451110C94EE040C94B7
:1007B000A9040E94CB0468F39923B1F3552391F364
:1007C000951B550BBB27AA2762177307840738F0C0
:1007D0009F5F5F4F220F331F441FAA1FA9F335D01D
:1007E0000E2E3AF0E0E832D091505040E695001CD1
:1007F000CAF72BD0FE2F29D0660F771F881FBB1F8B
:10080000261737074807AB07B0E809F0BB0B802D68
:10081000BF01FF2793585F4F3AF09E3F510578F094
:100820000C94A3040C94EE045F3FE4F3983ED4F3DD
:10083000869577956795B795F7959F5FC9F7880F68
:10084000911D9695879597F90895E1E0660F771FBA
:10085000881FBB1F621773078407BA0720F0621B4B
:10086000730B840BBA0BEE1F88F7E09508950E9476
:10087000D30488F09F5798F0B92F9927B751B0F05B
:10088000E1F0660F771F881F991F1AF0BA95C9F714
:1008900014C0B13091F00E94ED04B1E008950C94C1
:1008A000ED04672F782F8827B85F39F0B93FCCF374
:1008B000869577956795B395D9F73EF49095809591
:1008C000709561957F4F8F4F9F4F0895E89409C0B1
:1008D00097FB3EF490958095709561957F4F8F4F73
:1008E0009F4F9923A9F0F92F96E9BB279395F69589
:1008F000879577956795B795F111F8CFFAF4BB0F07
:1009000011F460FF1BC06F5F7F4F8F4F9F4F16C06A
:10091000882311F096E911C0772321F09EE8872FF4
:10092000762F05C0662371F096E8862F70E060E0B0
:100930002AF09A95660F771F881FDAF7880F969529
:10094000879597F9089597F99F6780E870E060E0D0
:1009500008959FEF80EC089500240A941616170658
:1009600018060906089500240A94121613061406A0
:1009700005060895092E0394000C11F4882352F003
:10098000BB0F40F4BF2B11F460FF04C06F5F7F4FBB
:100990008F4F9F4F089557FD9058440F551F59F0A2
:1009A0005F3F71F04795880F97FB991F61F09F3F5C
:1009B00079F087950895121613061406551FF2CF85
:1009C0004695F1DF08C0161617061806991FF1CFD5
:1009D00086957105610508940895E894BB276627FC
:1009E0007727CB0197F908950E9407050C94BA0464
:1009F0000E94AC0438F00E94B30420F0952311F05B
:100A00000C94A3040C94A90411240C94EE040E94E9
:100A1000CB0470F3959FC1F3950F50E0551F629F73
:100A2000F001729FBB27F00DB11D639FAA27F00D47
:100A3000B11DAA1F649F6627B00DA11D661F829F6E
:100A40002227B00DA11D621F739FB00DA11D621F53
:100A5000839FA00D611D221F749F3327A00D611D70
:100A6000231F849F600D211D822F762F6A2F112452
:100A70009F5750409AF0F1F088234AF0EE0FFF1F85
:100A8000BB1F661F771F881F91505040A9F79E3FDC
:100A9000510580F00C94A3040C94EE045F3FE4F342
:100AA000983ED4F3869577956795B795F795E79532
:100AB0009F5FC1F7FE2B880F911D9695879597F93B
:100AC0000895AA1BBB1B51E107C0AA1FBB1FA61795
:100AD000B70710F0A61BB70B881F991F5A95A9F7E7
:100AE00080959095BC01CD010895EE0FFF1F0590F4
:0A0AF000F491E02D0994F894FFCF73
:100AFA00447574793D004672657175656E63793D1A
:100B0A0000485A004F7574206F662052616E6765FF
:040B1A002121000095
:00000001FF
